:1008740053878075985053890F438920758BFD7574
:0B0884008DFDC2ABD28ED2AFD2AC22F1
:0808A8008F993099FDC29922DD
:03002300020800D0
:10080000C0E0C0D075D000C007309861AF99EF64E8
:1008100002700FAF991208A87580FF7580AAC29860
:10082000804BAF99EF64047011AF991208A8C28091
:10083000D281D282C283C2988033AF99EF640670AE
:1008400011AF991208A8D280C281C282D283C29805
:10085000801BAF99EF6408700FAF991208A87580DC
:10086000FF758055C29880057580FFC298D007D06B
:04087000D0D0E032D2
:02088F008F08D0
:0A089100E4FFFEFDDDFEDEFCDFFAF1
:01089B00223A
:0508B00012087480FE37
:0300000002089C57
:0C089C00787FE4F6D8FD7581080208B0F2
:00000001FF
